{
  "contractName": "MyContract",
  "abi": [
    {
      "constant": true,
      "inputs": [
        {
          "internalType": "uint256",
          "name": "",
          "type": "uint256"
        }
      ],
      "name": "adopteDog",
      "outputs": [
        {
          "internalType": "address",
          "name": "",
          "type": "address"
        }
      ],
      "payable": false,
      "stateMutability": "view",
      "type": "function"
    },
    {
      "constant": false,
      "inputs": [
        {
          "internalType": "uint256",
          "name": "indexDog",
          "type": "uint256"
        }
      ],
      "name": "adopt",
      "outputs": [
        {
          "internalType": "bool",
          "name": "",
          "type": "bool"
        }
      ],
      "payable": false,
      "stateMutability": "nonpayable",
      "type": "function"
    },
    {
      "constant": true,
      "inputs": [],
      "name": "getAdoptedDog",
      "outputs": [
        {
          "internalType": "address[16]",
          "name": "",
          "type": "address[16]"
        }
      ],
      "payable": false,
      "stateMutability": "view",
      "type": "function"
    }
  ],
  "bytecode": "0x608060405234801561001057600080fd5b5061039a806100206000396000f3fe608060405234801561001057600080fd5b50600436106100415760003560e01c806343698cf314610046578063652b9eb11461008c5780638588b2c5146100fa575b600080fd5b61004e610140565b6040518082601060200280838360005b8381101561007957808201518184015260208101905061005e565b5050505090500191505060405180910390f35b6100b8600480360360208110156100a257600080fd5b81019080803590602001909291905050506101c1565b604051808273ffffffffffffffffffffffffffffffffffffffff1673ffffffffffffffffffffffffffffffffffffffff16815260200191505060405180910390f35b6101266004803603602081101561011057600080fd5b81019080803590602001909291905050506101f4565b604051808215151515815260200191505060405180910390f35b610148610342565b60006010806020026040519081016040528092919082601080156101b7576020028201915b8160009054906101000a900473ffffffffffffffffffffffffffffffffffffffff1673ffffffffffffffffffffffffffffffffffffffff168152602001906001019080831161016d575b5050505050905090565b600081601081106101ce57fe5b016000915054906101000a900473ffffffffffffffffffffffffffffffffffffffff1681565b60008082101580156102075750600f8211155b610279576040517f08c379a000000000000000000000000000000000000000000000000000000000815260040180806020018281038252600f8152602001807f46756572612064652072616e676f2e000000000000000000000000000000000081525060200191505060405180910390fd5b600060019050600073ffffffffffffffffffffffffffffffffffffffff16600084601081106102a457fe5b0160009054906101000a900473ffffffffffffffffffffffffffffffffffffffff1673ffffffffffffffffffffffffffffffffffffffff1614156103345733600084601081106102f057fe5b0160006101000a81548173ffffffffffffffffffffffffffffffffffffffff021916908373ffffffffffffffffffffffffffffffffffffffff160217905550610339565b600090505b80915050919050565b60405180610200016040528060109060208202803883398082019150509050509056fea265627a7a723158205889987261dcace7c25c7050a03b62c534e035e4a7e48e5b71af7a298a010d5f64736f6c63430005100032",
  "source": "pragma solidity ^0.5.0;\n\ncontract MyContract {\n    // Variables global\n    address[16] public adopteDog;\n\n    function adopt(uint indexDog) public returns (bool) {\n        require(indexDog >= 0 && indexDog <= 15, \"Fuera de rango.\");\n        bool adoptSuccessful = true;\n        if(adopteDog[indexDog] == address(0)) {\n            adopteDog[indexDog] = msg.sender;\n        } else {\n            adoptSuccessful = false;\n        }\n        return adoptSuccessful;\n    }\n\n    /**\n     * Para ver palabras claves.\n     * No modifica datos de la Blockchain.\n     */\n    function getAdoptedDog() public view returns (address[16] memory) {\n        return adopteDog;\n    }\n}",
  "sourcePath": "/home/brayan/Documentos/DOCUMENTOS/PROYECTOS (B.O.E.P)/00 - PROYECTOS PROPIOS/HALCON BIT/TRUFFLE/structure-base-truffle/contracts/MyContract.sol",
  "compiler": {
    "name": "solc",
    "version": "0.5.16+commit.9c3226ce.Emscripten.clang"
  },
  "schemaVersion": "3.4.11",
  "updatedAt": "2022-12-01T21:31:05.670Z",
  "devdoc": {
    "methods": {}
  },
  "userdoc": {
    "methods": {
      "getAdoptedDog()": {
        "notice": "Para ver palabras claves. No modifica datos de la Blockchain."
      }
    }
  }
}