{
  "contractName": "Oracle",
  "abi": [
    {
      "constant": true,
      "inputs": [],
      "name": "numberAsteroids",
      "outputs": [
        {
          "name": "",
          "type": "uint256"
        }
      ],
      "payable": false,
      "stateMutability": "view",
      "type": "function",
      "signature": "0x829400cb"
    },
    {
      "inputs": [],
      "payable": false,
      "stateMutability": "nonpayable",
      "type": "constructor",
      "signature": "constructor"
    },
    {
      "anonymous": false,
      "inputs": [],
      "name": "__calbackNewData",
      "type": "event",
      "signature": "0x487836118ce6cfa1f22cdfe1ec056d90c2ba0135d9a1cd3cc0599d8b1cc650b7"
    },
    {
      "constant": false,
      "inputs": [],
      "name": "update",
      "outputs": [],
      "payable": false,
      "stateMutability": "nonpayable",
      "type": "function",
      "signature": "0xa2e62045"
    },
    {
      "constant": false,
      "inputs": [
        {
          "name": "_num",
          "type": "uint256"
        }
      ],
      "name": "setNumberAsteroids",
      "outputs": [],
      "payable": false,
      "stateMutability": "nonpayable",
      "type": "function",
      "signature": "0x402bc6bb"
    }
  ],
  "bytecode": "0x608060405234801561001057600080fd5b50336000806101000a81548173ffffffffffffffffffffffffffffffffffffffff021916908373ffffffffffffffffffffffffffffffffffffffff1602179055506102cb806100606000396000f3fe608060405260043610610057576000357c0100000000000000000000000000000000000000000000000000000000900463ffffffff168063402bc6bb1461005c578063829400cb14610097578063a2e62045146100c2575b600080fd5b34801561006857600080fd5b506100956004803603602081101561007f57600080fd5b81019080803590602001909291905050506100d9565b005b3480156100a357600080fd5b506100ac6101a7565b6040518082815260200191505060405180910390f35b3480156100ce57600080fd5b506100d76101ad565b005b6000809054906101000a900473ffffffffffffffffffffffffffffffffffffffff1673ffffffffffffffffffffffffffffffffffffffff163373ffffffffffffffffffffffffffffffffffffffff1614151561019d576040517f08c379a000000000000000000000000000000000000000000000000000000000815260040180806020018281038252600a8152602001807f4f6e6c79206f776e65720000000000000000000000000000000000000000000081525060200191505060405180910390fd5b8060018190555050565b60015481565b6000809054906101000a900473ffffffffffffffffffffffffffffffffffffffff1673ffffffffffffffffffffffffffffffffffffffff163373ffffffffffffffffffffffffffffffffffffffff16141515610271576040517f08c379a000000000000000000000000000000000000000000000000000000000815260040180806020018281038252600a8152602001807f4f6e6c79206f776e65720000000000000000000000000000000000000000000081525060200191505060405180910390fd5b7f487836118ce6cfa1f22cdfe1ec056d90c2ba0135d9a1cd3cc0599d8b1cc650b760405160405180910390a156fea165627a7a72305820d348e49925d2c9f731d308f73e626a89222b84ee26abc12724641a431c2eeafa0029",
  "source": "pragma solidity ^0.5.0;\n\ncontract Oracle {\n  address owner;\n  uint public numberAsteroids;\n\n  event __calbackNewData();\n\n  modifier onlyOwner() {\n    require(msg.sender == owner, 'Only owner');\n    _;\n  }\n\n  constructor() public {\n    owner = msg.sender;\n  }\n\n  function update() public onlyOwner {\n    emit __calbackNewData();\n  }\n\n  function setNumberAsteroids(uint _num) public onlyOwner {\n    numberAsteroids = _num;\n  }\n}",
  "sourcePath": "/Users/alberto/Desktop/nuestro_oracle/contracts/Oracle.sol",
  "compiler": {
    "name": "solc",
    "version": "0.5.0+commit.1d4f565a.Emscripten.clang"
  },
  "schemaVersion": "3.0.3",
  "updatedAt": "2019-10-10T15:36:34.483Z",
  "devdoc": {
    "methods": {}
  },
  "userdoc": {
    "methods": {}
  }
}